:020000040800F2
:1000000008E300205502000851100008F90F00080D
:100010004D100008F9090008D52B00080000000069
:100020000000000000000000000000009D0100082A
:10003000510C000800000000F10100084113000805
:100040006F0200086F0200086F0200086F020008CC
:100050006F0200086F0200086F0200086F020008BC
:100060006F0200086F0200086F0200086F020008AC
:100070006F0200086F0200086F0200086F0200089C
:100080006F0200086F0200086F0200086F0200088C
:100090006F0200086F0200086F020008290D0008B7
:1000A0006F0200086F0200086F0200086F0200086C
:1000B0006F0200086F0200086F0200086F0200085C
:1000C0006F0200086F0200086F0200086F0200084C
:1000D0006F0200086D1700086F0200086F02000829
:1000E0006F0200086F0200086F0200086F0200082C
:1000F0006F0200086F0200086F0200086F0200081C
:100100006F0200086F0200086F0200086F0200080B
:100110006F0200086F020008551600086F02000801
:100120006F0200086F0200086F0200086F020008EB
:100130006F020008550C00086F0200086F020008EB
:100140006F0200086F0200086F0200086F020008CB
:100150006F0200086F0200086F0200086F020008BB
:100160006F0200086F0200086F0200086F020008AB
:100170006F0200086F0200086F0200086F0200089B
:100180006F0200086F020008DFF80CD000F0A8FA38
:1001900000480047DD77000808E300202A4B196873
:1001A0000868B0E8F04F80F30988BFF36F8F4FF015
:1001B000000080F3118870470000000006480068C6
:1001C000006880F3088862B661B6BFF34F8FBFF353
:1001D0006F8F00DF00BF00BF08ED00E0DFF80C000C
:1001E000016841F470010160704700BF88ED00E0D4
:1001F000EFF30980BFF36F8F134B1A681EF0100FD7
:1002000008BF20ED108A20E9F04F106008B44FF0CD
:10021000100080F31188BFF34F8FBFF36F8F0CF086
:1002200097F84FF0000080F3118808BC196808683F
:10023000B0E8F04F1EF0100F08BFB0EC108A80F34A
:100240000988BFF36F8F7047A0000020EFF305808F
:10025000704700000648804706480047FEE7FEE773
:10026000FEE7FEE7FEE7FEE7FEE7FEE7FEE7FEE766
:10027000751300088901000840EA01039B0703D0B9
:1002800009E008C9121F08C0042AFAD203E011F8D5
:10029000013B00F8013B521EF9D27047D2B201E097
:1002A00000F8012B491EFBD270470022F6E710B57B
:1002B00013460A4604461946FFF7F0FF204610BDD4
:1002C000421C10F8011B0029FBD1801A704703461D
:1002D00011F8012B00F8012B002AF9D118467047BC
:1002E00030B50B46014600202022012409E021FA06
:1002F00002F59D4205D303FA02F5491B04FA02F503
:100300002844151EA2F10102F1DC30BD2DE9F05F99
:100310000546002092469B46884606468146402474
:100320001BE0284641464746224600F0FAF953466C
:100330005A46C01A914110D311461846224600F081
:10034000E1F92D1A67EB01084F46224601200021F2
:1003500000F0D8F917EB00094E41201EA4F101046A
:10036000DFDC484631462A464346BDE8F09F2DE98A
:10037000FE4F804681EA0300C00F0C46009021F03A
:10038000004123F00045B8EB0200A94105D24046E8
:10039000214690461C460B46024623F0004010437F
:1003A00047D0270DC7F30A00C3F30A510290401A41
:1003B000019040286BDAC3F3130040F4801B0098CF
:1003C000924620B10023D2EB030A63EB0B0B01989A
:1003D0005946C0F14002504600F094F906460D46D9
:1003E00050465946019A00F0ACF910EB0800614103
:1003F000002487EA115284EAE7731A4340D0009A36
:1004000062B3019A012A4FEA075215DC001B61EB27
:1004100002014FF0004202EA0752CDE90042001CFF
:1004200041F5801132462B4600F0ACF903B0BDE82F
:10043000F08F40462146F9E7001B61EB0201001CEA
:1004400041F5801300185B412018A2F5001747EB17
:10045000030140EAD570B6196D4111E06D084FEA0D
:10046000360645EAC0754FEA0752001B61EB0201F0
:10047000001C41F5801149084FEA30000019514134
:1004800032462B4603B0BDE8F04F00F06CB900983F
:10049000012240000023D0EB020263EBE0730098DE
:1004A00021464FEAE074B8EB000061EB0401E9E794
:1004B00083F000435BE781F0004158E72DE9FE4FF0
:1004C00081EA030404F0004421F0004100944FF05D
:1004D000000B23F0004350EA01045ED052EA03040B
:1004E0005BD0C3F30A54C1F30A552C44A4F2F3348D
:1004F0000194A0FB0254C1F3130141F48011C3F332
:10050000130343F4801301FB024400FB034E840AEF
:10051000970A44EA815447EA8357A4FB0768029587
:100520008D0A05FB07854FEA932C04FB0C54270525
:10053000029D4FEA065847EA1637B5EB08056EEB01
:10054000070C870E920E47EA811742EA8312A7FB37
:100550000201B6EB0B0164EB00042B0D43EA0C33F4
:100560005E1844EB1C50DA465146E7FB0201C5F326
:1005700013044FEA0B3343EA14534FEA0432019C4D
:1005800043EA0603A4F10C040294009CCDE900B4F4
:1005900000F0F8F803B0BDE8F08F00200146F9E75D
:1005A0002DE9F04D81EA030404F0004B21F00045F1
:1005B00014464FF0000A23F0004150EA050220D013
:1005C00054EA01021DD0C5F30A570246C5F31303CE
:1005D000C1F31300C1F30A5640F4801543F48013AD
:1005E000A7EB0608101BD64608F2FD3873EB050092
:1005F00002D308F1010801E092185B41B8F1000F45
:1006000003DA00200146BDE8F08D00204FF4801190
:10061000064684460EE0171B73EB050705D3121B35
:1006200063EB050306434CEA010C49084FEA30002E
:1006300092185B4150EA0107EDD152EA030012D053
:1006400082EA040083EA0501084305D0101BAB4190
:1006500006D20122002306E000224FF0004302E010
:100660006FF0010253101AEB06004CEB085110EB2F
:100670000A0041EB0B01BDE8F04D00F074B8C1F386
:100680000A52C1F3130140F2FF3341F480119A4240
:1006900002DA00200146704740F233439A42A2F248
:1006A000334202DC524200F03CB800F02BB80000AC
:1006B00030B5041E71F1000404DB4FF000444042E9
:1006C00064EB0101141E73F1000405DB1C464FF0BE
:1006D0000043524263EB0403994208BF904230BD8D
:1006E000064C074D06E0E06840F0010394E807007F
:1006F00098471034AC42F6D3FFF74AFD94D5000872
:10070000B4D50008202A04DB203A00FA02F10020C8
:1007100070479140C2F1200320FA03F3194390403F
:100720007047202A04DB203A21FA02F000217047AA
:1007300021FA02F3D040C2F1200291400843194649
:100740007047202A06DBCB17203A41FA02F043EA31
:10075000E07306E041FA02F3D040C2F1200291407A
:1007600008431946704710B5141E73F1000408DAE7
:10077000401C41F1000192185B411A4301D120F065
:10078000010010BD2DE9F04D92469B4611B1B1FA22
:1007900081F202E0B0FA80F220329046FFF7B2FF19
:1007A00004460F4640EA0A0041EA0B0153465A4606
:1007B000084313D0114653EA010019D0C8F1400292
:1007C0005046FFF7AEFF05460E4650465946424694
:1007D000FFF798FF084305D0012004E02046394682
:1007E000BDE8F08D0020054346EAE0762C43374310
:1007F0000A986305E40AA0EB08000022FD0A44EA17
:1008000047540A3002D500200146E9E701051019D6
:100810006941DDE9084500196941BDE8F04DA2E7ED
:1008200070B58C1810F8015B15F0070301D110F8B2
:10083000013B2A1106D110F8012B03E010F8016BDF
:1008400001F8016B5B1EF9D12B0705D40023521E62
:100850000DD401F8013BFAE710F8013BCB1A921CCA
:1008600003E013F8015B01F8015B521EF9D5A142C8
:10087000D8D3002070BD000010B501200BF052FF4E
:10088000034908600BF09CFE0249086010BD00009F
:10089000180000201C0000201FB50020294A012359
:1008A000CDE901200093039003464FF4007226A186
:1008B00028480CF0ABF90020274A0223CDE901209B
:1008C0000093039003464FF4007224A126480CF0D5
:1008D0009DF90020254A0323CDE9012000930390D0
:1008E00003464FF4007222A124480CF08FF9002037
:1008F000234A0423CDE901200093039003464FF4DB
:10090000007220A122480CF081F90020214A052321
:10091000CDE901200093039003464FF400721EA11D
:1009200020480CF073F900201F4A0623CDE901206E
:100930000093039003464FF400721CA11E480CF074
:1009400065F91FBD00000020765461736B55736517
:10095000724946002DC400080400002076546173DB
:100960006B4C45440000000035C000080800002022
:10097000765461736B4D736750726F0029C1000824
:100980000C000020765461736B536F636B657400C9
:1009900095C2000810000020765461736B544350D8
:1009A0006E6574001DC40008140000207654617345
:1009B0006B537461727400009DC200080FB438B5A7
:1009C0004FF480610B48FFF770FC05A800900948C0
:1009D000009A049902F024F9002000900548FFF7DE
:1009E0006FFC84B222460349012001F0F9FF38BCB4
:1009F0005DF814FB5401002000BFFEE70246094BDE
:100A00009A4201D2084801E00648103811F0005F10
:100A100003D0064B0B40C36002E0044B0B408360E5
:100A20007047000010640240006002407D0F7D0F9F
:100A300021B1026842F00102026003E0026822F084
:100A40000102026070470000016821F001010160AD
:100A50000021016041608160C1600161212141612B
:100A60004A49884204D13D21484A103A91608CE0BD
:100A700046491831884205D14FF47461434A103A0F
:100A8000916082E041493031884205D14FF47411C0
:100A90003E4A103A916078E03C494831884205D19D
:100AA0004FF07461394A103A91606EE03749603115
:100AB000884204D13649354A103AD16065E033495D
:100AC0007831884204D13349304A103AD1605CE031
:100AD0002E499031884204D12F492C4A103AD160D6
:100AE00053E02A49A831884205D14FF03D51274AA9
:100AF000103AD16049E02949884204D13D21274A72
:100B0000083A116041E025491831884205D14FF477
:100B10007461224A083A116037E020493031884236
:100B200005D14FF474111D4A083A11602DE01B499C
:100B30004831884205D14FF07461184A083A116073
:100B400023E016496031884204D11149134A121F2B
:100B500011601AE011497831884204D10D490F4AD9
:100B6000121F116011E00D499031884204D10A49E9
:100B70000A4A121F116008E00849A831884204D1CE
:100B80004FF03D51054A121F11607047106002403E
:100B90003D000020400F002000003D201064024076
:100BA000014600200A6812F0010F01D0012000E088
:100BB0000020704730B503460A46002000240A4D45
:100BC000AB4201D2094901E00749103912F0005F38
:100BD00001D04C6800E00C68054D2C40144201D057
:100BE000012000E0002030BD10640240006002409F
:100BF0007D0F7D0F10B500220268134B1A40CC68A0
:100C00000B6823434C6923438C692343CC692343FA
:100C10000C6A23434C6A23438C6A23434C6B234363
:100C20008C6B23431A430260426922F00702D1E928
:100C30000B3423431A4342610B6943604B68836062
:100C40008B68C36010BD00003F801CF0416070479E
:100C5000704700002DE9F0412F48047800BF2F486D
:100C600000EB0410006849F21A01084200D030E09D
:100C70002A4800EB0410006800F44070B0F5407F93
:100C800000D026E0254800EB04100068C0F30D40BA
:100C9000051F40F2EA50854200D91AE045F00040B5
:100CA00002F048FD06469EB11C4800EB0410806827
:100CB00020F0030706F10408E81C850803E001CFD3
:100CC00048F8040B6D1E002DF9D1304607F0B2FB39
:100CD00000BF4FF00040114901EB04110860601C97
:100CE0000446042800D100240C4800EB04100068DE
:100CF00010F0004FB3D008490C700948406910F05B
:100D0000800F04D080200649486100208860054893
:100D100003494861BDE8F081060100208CB5002040
:100D2000009002404080010070B5402000F066F85D
:100D3000002842D0152007F081FC044614F0040F6F
:100D400038D0002508E0012007F078FC044614F0B4
:100D5000040F00D002E06D1C0A2DF4D300BF14F084
:100D6000040F13D015A10122194B1A7000200AE0BC
:100D70000A5C184B9A8000BF164A128812F0400F86
:100D8000FAD0421CD0B21328F2D313E012A10022F1
:100D90000F4B1A7000200AE00A5C0E4B9A8000BFCD
:100DA0000C4A128812F0400FFAD0421CD0B216281A
:100DB000F2D300BF402000F01BF870BD4554485FDF
:100DC0004C494E4B20436F6E6E6563740D0A0000F4
:100DD00004010020001001404554485F4C494E4B2F
:100DE00020446973636F6E6E6563740D0A000000C2
:100DF0000149086070470000143C01400146002092
:100E0000034A12680A4201D0012000E00020704726
:100E1000143C0140002123498279002A3AD00A4635
:100E2000126803689A430B461A600A1D1268036829
:100E30009A430B1D1A60027911440A6803681A4329
:100E40000A60184A0832126803689A43154B08333F
:100E50001A601A1D126803689A43124B0C331A6009
:100E60004279102A0ED11A1F126803681A430D4BDB
:100E700008331A601A1D126803681A43094B0C33B1
:100E80001A600DE00749427911440A6803681A4361
:100E90000A6005E0027911440A6803689A430A600F
:100EA00070470000003C014000B585B00121802062
:100EB00000F00CF90121880300F028F900208DF8DA
:100EC00010008DF812008DF813004020039003A944
:100ED000124800F025F80621072000F09BF9402079
:100EE000019000208DF808000C208DF809000120E9
:100EF0008DF80A0001A8FFF78DFF17208DF800007C
:100F000001208DF8010000208DF8020001208DF8ED
:100F10000300684600F09EF805B000BD001C0240CA
:100F2000F0B50A4600210023002400BF3DE0012562
:100F300005FA01F3156805EA03049C4234D10568FB
:100F40004F000326BE40B543056015794E00B540FD
:100F50000668354305601579012D02D01579022DFB
:100F600016D185684F000326BE40B543856055798C
:100F70004E00B540866835438560456801268E4041
:100F8000B5434560456896798E40B6B235434560B5
:100F9000C5684F000326BE40B543C560D5794E00F5
:100FA000B540C6683543C560491C1029BFD3F0BDA4
:100FB000F0B5002300244D07ED0E02FA05F3CE1024
:100FC00000F1200555F826504E07F70E0F26BE40BB
:100FD000B543CF1000F1200646F82750CE1000F19F
:100FE000200555F8265045EA0304CE1000F12005EF
:100FF00045F82640F0BD000008A100200AE00A5C88
:10100000114B9A8000BF104A128812F0400FFAD09C
:10101000421CD0B22A28F2D300BFFEE70D0A456E6B
:1010200074657220486172644661756C745F4861D2
:101030006E646C65722C2053797374656D20486101
:101040006C742E0D0A0000000010014000BFFEE786
:101050007047000070B5002100230F22C47824B32C
:10106000174C246804F4E064C4F5E064C4F3072179
:10107000C1F10404E3B20A4144789C40E1B28478AF
:10108000144021430C07210E0E4C0578615504785D
:1010900004F01F050124AC4005786D114FF0E026E7
:1010A00006EB8505C5F8004109E0047804F01F044B
:1010B0000125A540044C0678761144F8265070BDF1
:1010C0000CED00E000E400E080E100E029B1064A18
:1010D00012680243044B1A6004E0034A1268824318
:1010E000014B1A60704700003038024029B1064AAF
:1010F00012680243044B1A6004E0034A12688243F8
:10110000014B1A60704700004038024029B1064A7E
:1011100012680243044B1A6004E0034A12688243D7
:10112000014B1A607047000044380240F0B50021BE
:1011300000220024022500260223324F3F6807F0D8
:101140000C0121B1042905D0082937D105E02E4F23
:10115000076036E02D4F076033E02A4F3F1F3F689E
:10116000C7F38056274F3F1F3F6807F03F036EB11C
:10117000264FB7FBF3F7DFF88CC0ACF1040CDCF8BA
:1011800000C0CCF3881C07FB0CF40CE01E4FB7FB2F
:10119000F3F7DFF870C0ACF1040CDCF800C0CCF35E
:1011A000881C07FB0CF4174F3F1F3F68C7F301472C
:1011B0007F1C7D00B4FBF5F7076002E0124F07606B
:1011C00000BF00BF0F4F3F6807F0F0010909104F43
:1011D0007A5C0768D74047600A4F3F6807F4E051E0
:1011E000890A0B4F7A5C4768D7408760054F3F6894
:1011F00007F46041490B064F7A5C4768D740C760E7
:10120000F0BD0000083802400024F40040787D0161
:101210007A00002030B500228B071C0F0F2303FA41
:1012200004F20B4B8C1053F824309343084C8D1070
:1012300044F8253023468C1053F824308C07240FB3
:1012400000FA04F42343024C8D1044F8253030BDDD
:10125000083801400CB50020019000903448006827
:1012600040F480303249086000BF3148006800F423
:10127000003000900198401C0190009818B9019826
:10128000B0F5A04FF1D12A48006810F4003F02D019
:101290000120009001E0002000900098012845D135
:1012A00023484030006840F08050214940310860B8
:1012B0002048006840F440401E4908601C4808303F
:1012C00000681B49083108600846006840F4004087
:1012D00008600846006840F4A05008601648091FDE
:1012E0000860081F006840F08070091F086000BF98
:1012F0000F48006810F0007FFAD040F205700F49E7
:1013000008600B480830006820F0030008490831E5
:1013100008600846006840F00200086000BF04480A
:101320000830006800F00C000828F8D10CBD00005F
:10133000003802400070004008544007003C024062
:1013400010B500BF1020EFF3118180F31188BFF3B7
:101350004F8FBFF36F8F00BF0BF016FD18B14FF02A
:10136000805003490860002080F3118800BF10BD41
:1013700004ED00E010B51548006840F47000134912
:1013800008601348006840F001001149086000201F
:101390000F49083108600E4800680E4908400C49A2
:1013A00008600D48091D0860081F006820F48020AF
:1013B000091F0860002006490C310860FFF74AFF4A
:1013C0004FF0006001498039086010BD88ED00E0F1
:1013D00000380240FFFFF6FE103000248EB0C1E05E
:1013E00000220121084607F01FFD074640F2E930C0
:1013F00000BA000CADF81A000120ADF8180000206A
:101400000790102206A9384603F026F80121384635
:1014100006F01AF910200A900AAA02A9384602F02A
:1014200081F805469DF80F0000909DF80E309DF85C
:101430000D209DF80C104CA001F0CEFBBDF80A0069
:1014400000BA010C51A001F0C7FB384603F04CFC78
:101450002F4682E000230A220BA9384607F00AF93A
:101460000446002C0BDC261E01DB304600E07042F7
:101470004C4A52F820104CA001F0AEFB6EE0214621
:1014800051A001F0A9FB9DF82C00312802D0322890
:1014900061D124E031205349087032204870332054
:1014A00088703420C8703520087136204871372084
:1014B00088713820C8710D2008720A2048720023F4
:1014C0000A22384607F0F2FA0446002C03DA46A056
:1014D00001F082FB02E04AA001F07EFB3CE04FF409
:1014E00080600A9030223F480A99FEF7D7FE6120BB
:1014F0003C49087062204870632088706420C8707E
:1015000065210A98001F374A115466210A98C01EA7
:10151000115467210A98801E115468210A98401EB0
:10152000115400232F4938460A9A07F0BFFA04469F
:10153000002C0BDA261E01DB304600E07042194A0F
:1015400052F8201034A001F047FB03E0214639A0F7
:1015500001F042FB00E000BF00BF7BE700BF384660
:1015600003F0C2FB3CE70000D4B6B3CCBFCDBBA7B1
:10157000B6CBC7EBC7F3C1ACBDD349503A20256405
:101580002E25642E25642E25640A0000D4B6B3CC23
:10159000BFCDBBA7B6CBB6CBBFDABAC53A20256460
:1015A0000A00000044000020CDCBB3F6BDD3CAD55D
:1015B000BAAFCAFDA3ACD6D8D0C2BFAACABCBCE0E1
:1015C000CCFD25730D0A00005265636569766520C0
:1015D00044617461204C656E677468203D20256409
:1015E0000D0A0000C4270020BAAFCAFD73656E64FF
:1015F000B7A2CBCDCAFDBEDDCAA7B0DC0D0A000084
:10160000BAAFCAFD73656E64B7A2CBCDCAFDBEDDAD
:10161000B3C9B9A60D0A0000BAAFCAFD73656E64FE
:10162000B7A2CBCDCAFDBEDDCAA7B0DC25730D0ABB
:1016300000000000BAAFCAFD73656E64B3C9B9A6F5
:10164000B7A2CBCDCAFDBEDD203D202564D7D6BDD7
:10165000DA0D0A0010B50121064800F02AF840B161
:1016600005480068401C044908600121014800F059
:1016700011F810BD001000404000002021B1028888
:1016800042F08002028004E002884FF67F731A4025
:1016900002807047CA430282704721B1028842F03B
:1016A0000102028004E002884FF6FE731A400280B5
:1016B000704730B50246002000230024158A05EA51
:1016C0000103958905EA010413B10CB1012000E082
:1016D000002030BD1AB183890B43838102E08389E6
:1016E0008B4383817047000000220288184B984288
:1016F0000ED0184B98420BD0B0F1804F08D0164B4B
:10170000984205D0154B984202D0154B984204D10F
:101710004FF68F731A404B881A43124B984207D0EA
:10172000114B984204D04FF6FF431A400B891A43DD
:1017300002804B68C3620B880385054B984202D038
:10174000044B984201D18B7A038601238382704730
:101750000000014000040140000400400008004077
:10176000000C0040001000400014004010B502487A
:1017700001F0BDF910BD0000742C002021B1828958
:1017800042F40052828104E082894DF6FF731A40D0
:10179000828170472DE9F04186B006460F4690469B
:1017A0001C460C9D012E2ED101210846FFF78EFC10
:1017B00001210846FFF78AFC01211020FFF7A6FC53
:1017C00007220921FE48FFF7F3FB07220A21FC4804
:1017D000FFF7EEFB7002049003208DF81500022045
:1017E0008DF8140000208DF8160001208DF81700E8
:1017F00004A9F348FFF794FBB002049004A9F04851
:10180000FFF78EFBF6E0022E2ED101210846FFF7EE
:101810005DFC01210846FFF759FC01214804FFF750
:1018200065FC07220221E648FFF7C2FB07220321DD
:10183000E348FFF7BDFB0420049003208DF815005A
:1018400002208DF8140000208DF8160001208DF87C
:10185000170004A9DA48FFF763FB0820049004A9E5
:10186000D748FFF75DFBC5E0032E30D101210220F0
:10187000FFF72CFC01210220FFF728FC012188043E
:10188000FFF734FC07220A21CE48FFF791FB07221D
:101890000B21CC48FFF78CFB4FF4806004900320B1
:1018A0008DF8150002208DF8140000208DF8160028
:1018B00001208DF8170004A9C248FFF731FB4FF44F
:1018C0000060049004A9BF48FFF72AFB92E0042EB1
:1018D0002ED101210420FFF7F9FB01210420FFF79D
:1018E000F5FB0121C804FFF701FC08220A21B648D4
:1018F000FFF75EFB08220B21B348FFF759FB3002CC
:10190000049003208DF8150002208DF814000020AB
:101910008DF8160001208DF8170004A9AA48FFF7DA
:10192000FFFA7002049004A9A748FFF7F9FA61E0F2
:10193000052E2FD101210420FFF7C8FB012108202B
:10194000FFF7C4FB01210805FFF7D0FB08220C219B
:101950009D48FFF72DFB082202219C48FFF728FB3A
:101960004FF48050049003208DF8150002208DF86C
:10197000140000208DF8160001208DF8170004A92E
:101980009148FFF7CDFA0420049004A98F48FFF78F
:10199000C7FA2FE0062E2DD101210420FFF796FB78
:1019A00001210420FFF792FB01212020FFF7AEFB6D
:1019B000082206218448FFF7FBFA08220721824803
:1019C000FFF7F6FA4020049003208DF8150002205E
:1019D0008DF8140000208DF8160001208DF81700F6
:1019E00004A97948FFF79CFA8020049004A976485E
:1019F000FFF796FA00970020ADF80400ADF8060056
:101A0000ADF80800ADF80C00ADF80A80012E7DD1CC
:101A100069466F4800F05EFF802D04D101228021CD
:101A20006B4800F04BFC402D04D101224021684856
:101A300000F044FCC02D09D101228021644800F04F
:101A40003DFC01224021624800F038FC04F02800EF
:101A5000282804D1012228215D4800F016FF40F219
:101A600027702040A0F5E061273905D1012240F21E
:101A70002771574800F009FF40F226602040A0F58A
:101A8000C061263905D1012240F22661504800F09C
:101A9000FCFE40F225502040A0F5A061253905D17B
:101AA000012240F225514A4800F0EFFE40F2253075
:101AB0002040A0F54071253905D1012240F22531A1
:101AC000434800F0E2FE40F224402040A0F580614F
:101AD000243905D1012240F224413D4800F0D5FED1
:101AE00040F646002040A0F50061463905D10122AC
:101AF00040F64601364800F0C8FE40F66A10204025
:101B0000A0F510616A3907D1012200E033E040F608
:101B10006A112F4800F0B9FE04F06000602804D17B
:101B2000012260212A4800F0B0FE04F45870B0F59C
:101B3000587F05D101224FF45871254800F0A5FEC9
:101B400004F41870B0F5187F05D101224FF4187114
:101B50001F4800F09AFE04F4B070B0F5B07F05D1D4
:101B600001224FF4B0711A4800F08FFE012118488D
:101B7000FFF704FE9BE3022E7DD16946154800F075
:101B8000A9FE802D04D101228021124800F096FB8D
:101B9000402D04D1012240210E4800F08FFBC02DC2
:101BA00009D1012280210B4800F088FB012240214D
:101BB000084800F083FB04F02800282811D10BE02E
:101BC000000002400004024000080240000C0240F5
:101BD000001001400044004001222821FC4800F090
:101BE00054FE40F227702040A0F5E061273905D16E
:101BF000012240F22771F64800F047FE40F22660CD
:101C00002040A0F5C061263905D1012240F22661AD
:101C1000EF4800F03AFE40F225502040A0F5A061C8
:101C2000253905D1012240F22551E94800F02DFE69
:101C300040F225302040A0F54071253905D1012220
:101C400040F22531E24800F020FE40F224402040DE
:101C5000A0F58061243905D1012240F22441DC48FD
:101C600000F013FE40F646002040A0F50061463922
:101C700007D1012200E040E040F64601D44800F0E0
:101C800004FE40F66A102040A0F510616A3905D1C3
:101C9000012240F66A11CE4800F0F7FD04F0600022
:101CA000602804D101226021C94800F0EEFD04F44F
:101CB0005870B0F5587F05D101224FF45871C448CF
:101CC00000F0E3FD04F41870B0F5187F05D101228F
:101CD0004FF41871BE4800F0D8FD04F4B070B0F5B0
:101CE000B07F05D101224FF4B071B94800F0CDFDAD
:101CF0000121B748FFF742FDD9E2032E7DD16946A5
:101D0000B44800F0E7FD802D04D101228021B148C4
:101D100000F0D4FA402D04D101224021AD4800F05A
:101D2000CDFAC02D09D101228021AA4800F0C6FABF
:101D300001224021A74800F0C1FA04F02800282819
:101D400004D101222821A34800F09FFD40F2277012
:101D50002040A0F5E061273905D1012240F227712A
:101D60009C4800F092FD40F226602040A0F5C06142
:101D7000263905D1012240F22661964800F085FD02
:101D800040F225502040A0F5A061253905D101225F
:101D900040F225518F4800F078FD40F22530204078
:101DA000A0F54071253905D1012240F2253189483D
:101DB00000F06BFD40F224402040A0F58061243902
:101DC00005D1012240F22441824800F05EFD40F638
:101DD00046002040A0F50061463905D1012240F6B9
:101DE00046017C4800F051FD40F66A102040A0F505
:101DF00010616A3907D1012200E033E040F66A1130
:101E0000744800F042FD04F06000602804D1012213
:101E10006021704800F039FD04F45870B0F5587F27
:101E200005D101224FF458716A4800F02EFD04F4E8
:101E30001870B0F5187F05D101224FF4187165486C
:101E400000F023FD04F4B070B0F5B07F05D101229D
:101E50004FF4B0715F4800F018FD01215D48FFF7B5
:101E60008DFC24E2042E7DD169465B4800F032FDF2
:101E7000802D04D101228021574800F01FFA402D07
:101E800004D101224021544800F018FAC02D09D194
:101E900001228021504800F011FA012240214E48D1
:101EA00000F00CFA04F02800282804D1012228218F
:101EB000494800F0EAFC40F227702040A0F5E061BC
:101EC000273905D1012240F22771434800F0DDFC9B
:101ED00040F226602040A0F5C061263905D10122DC
:101EE00040F226613C4800F0D0FC40F225502040F2
:101EF000A0F5A061253905D1012240F225513648CF
:101F000000F0C3FC40F225302040A0F54071253997
:101F100005D1012240F225312F4800F0B6FC40F2F5
:101F200024402040A0F58061243905D1012240F2EF
:101F30002441294800F0A9FC40F646002040A0F5C5
:101F40000061463905D1012240F64601224800F0E1
:101F50009CFC40F66A102040A0F510616A3907D158
:101F6000012200E03AE040F66A111B4800F08DFCC7
:101F700004F06000602804D101226021164800F0BE
:101F800084FC04F45870B0F5587F05D101224FF459
:101F90005871114800F079FC04F41870B0F5187FFE
:101FA00005D101224FF418710B4800F06EFC04F4C7
:101FB000B070B0F5B07F05D101224FF4B071064882
:101FC00000F063FC01210448FFF7D8FB6FE100003B
:101FD0000044004000480040004C0040052E7DD1E8
:101FE0006946B44800F076FC802D04D1012280219E
:101FF000B04800F063F9402D04D101224021AD48E2
:1020000000F05CF9C02D09D101228021A94800F01F
:1020100055F901224021A74800F050F904F02800AA
:10202000282804D101222821A24800F02EFC40F2E9
:1020300027702040A0F5E061273905D1012240F248
:1020400027719C4800F021FC40F226602040A0F55A
:10205000C061263905D1012240F22661954800F081
:1020600014FC40F225502040A0F5A061253905D18F
:10207000012240F225518F4800F007FC40F2253044
:102080002040A0F54071253905D1012240F22531CB
:10209000884800F0FAFB40F224402040A0F580611F
:1020A000243905D1012240F22441824800F0EDFBA1
:1020B00040F646002040A0F50061463905D10122D6
:1020C00040F646017B4800F0E0FB40F66A102040F5
:1020D000A0F510616A3907D1012200E033E040F633
:1020E0006A11744800F0D1FB04F06000602804D14C
:1020F000012260216F4800F0C8FB04F45870B0F56D
:10210000587F05D101224FF458716A4800F0BDFB99
:1021100004F41870B0F5187F05D101224FF418713E
:10212000644800F0B2FB04F4B070B0F5B07F05D1A4
:1021300001224FF4B0715F4800F0A7FB01215D4818
:10214000FFF71CFBB3E0062E7DD169465A4800F02C
:10215000C1FB802D04D101228021574800F0AEF848
:10216000402D04D101224021534800F0A7F8C02D92
:1021700009D101228021504800F0A0F8012240211D
:102180004D4800F09BF804F02800282804D10122D3
:102190002821494800F079FB40F227702040A0F543
:1021A000E061273905D1012240F22771424800F051
:1021B0006CFB40F226602040A0F5C061263905D1B5
:1021C000012240F226613C4800F05FFB40F22550BE
:1021D0002040A0F5A061253905D1012240F225510A
:1021E000354800F052FB40F225302040A0F5407108
:1021F000253905D1012240F225312F4800F045FB59
:1022000040F224402040A0F58061243905D101220C
:1022100040F22441284800F038FB40F646002040B8
:10222000A0F50061463905D1012240F64601224859
:1022300000F02BFB40F66A102040A0F510616A39CF
:1022400007D1012200E032E040F66A111A4800F09E
:102250001CFB04F06000602804D1012260211648B4
:1022600000F013FB04F45870B0F5587F05D101223B
:102270004FF45871104800F008FB04F41870B0F5E2
:10228000187F05D101224FF418710B4800F0FDFAB8
:1022900004F4B070B0F5B07F05D101224FF4B071F5
:1022A000054800F0F2FA01210348FFF767FA06B08B
:1022B000BDE8F08100500040001401401AB1838A4B
:1022C0000B43838202E0838A8B4383827047000042
:1022D00070B590B004460D461646022C05D0032C6E
:1022E00003D0042C01D0052C04D101214805FEF7B0
:1022F000EDFE03E001218805FEF7E8FE012C0ED17A
:102300006648FEF7A1FB00BF6448FEF749FC0028C1
:10231000FAD14FF000600190614802905BE0022C1E
:102320000ED16048FEF790FB00BF5E48FEF738FC18
:102330000028FAD14FF0006001905B4802904AE01B
:10234000032C10D157486038FEF77EFB00BF55487C
:102350006038FEF725FC0028F9D14FF000600190AD
:102360005248029037E0042C10D14E484838FEF70E
:102370006BFB00BF4B484838FEF712FC0028F9D130
:102380004FF0006001904A48029024E0052C10D1E3
:1023900044487838FEF758FB00BF42487838FEF7CB
:1023A000FFFB0028F9D14FF00060019041480290F6
:1023B00011E0062C0FD139481838FEF745FB00BF55
:1023C00036481838FEF7ECFB0028F9D14FF02060B2
:1023D00001903948029003950020049005960690DC
:1023E0004FF4806007900020089009904FF48070AF
:1023F0000A9000020B9000200C9003200D9000200A
:102400000E900F90012C08D101A92448FEF7F2FB91
:1024100001212248FEF70CFB3DE0022C08D101A966
:102420002048FEF7E7FB01211E48FEF701FB32E0E2
:10243000032C0AD101A91B486038FEF7DBFB012100
:1024400018486038FEF7F4FA25E0042C0AD101A9F7
:1024500014484838FEF7CEFB012112484838FEF7F1
:10246000E7FA18E0052C0AD101A90E487838FEF7E2
:10247000C1FB01210B487838FEF7DAFA0BE0062C95
:1024800009D101A905481838FEF7B4FB012103481A
:102490001838FEF7CDFA10B070BD0000406402405D
:1024A0000410014088600240044400400448004099
:1024B000044C0040045000400414014070B5044630
:1024C0000D46012C17D14FF020515348FEF796FAD4
:1024D00000215148FEF7ACFA00BF4F48FEF760FB01
:1024E0000028FAD129464C48FEF7B0FB01214A48A2
:1024F000FEF79EFA8FE0022C16D148494848FEF7B5
:102500007DFA00214648FEF793FA00BF4448FEF7E3
:1025100047FB0028FAD129464148FEF797FB0121E5
:102520003F48FEF785FA76E0032C1BD1E1063C48D4
:102530004838FEF763FA002139484838FEF778FA40
:1025400000BF37484838FEF72BFB0028F9D1294651
:1025500033484838FEF77AFB012131484838FEF706
:1025600067FA58E0042C1BD12E492D483038FEF76D
:1025700045FA00212A483038FEF75AFA00BF2848A9
:102580003038FEF70DFB0028F9D1294624483038B1
:10259000FEF75CFB012122483038FEF749FA3AE0A9
:1025A000052C1BD1E1061E481830FEF727FA002142
:1025B0001B481830FEF73CFA00BF19481830FEF7E8
:1025C000EFFA0028F9D1294615481830FEF73EFBEE
:1025D000012113481830FEF72BFA1CE0062C1AD103
:1025E0000E490D481838FEF709FA00210A48183834
:1025F000FEF71EFA00BF08481838FEF7D1FA002887
:10260000F9D1294604481838FEF720FB0121024879
:102610001838FEF70DFA70BDB864024000002020A3
:10262000A06002402000002070B590B004460D4626
:102630001646022C05D0032C03D0042C01D0052C07
:1026400004D101214805FEF741FD03E00121880581
:10265000FEF73CFD012C0ED16848FEF7F5F900BFEE
:102660006648FEF79DFA0028FAD14FF0006001900D
:10267000634802905BE0022C0ED16248FEF7E4F959
:1026800000BF6048FEF78CFA0028FAD14FF00060D6
:1026900001905D4802904AE0032C10D15948483817
:1026A000FEF7D2F900BF57484838FEF779FA0028FC
:1026B000F9D14FF0006001905448029037E0042CAB
:1026C00010D150483038FEF7BFF900BF4D483038C0
:1026D000FEF766FA0028F9D14FF0006001904C48EF
:1026E000029024E0052C10D146481830FEF7ACF9D2
:1026F00000BF44481830FEF753FA0028F9D14FF0D4
:10270000006001904348029011E0062C0FD13B4835
:102710001838FEF799F900BF38481838FEF740FA24
:102720000028F9D14FF0206001903B4802900395BA
:10273000402004900596002006904FF4806007909A
:102740000020089009900A904FF480300B900020F0
:102750000C9003200D9000200E900F90012C08D1BA
:1027600001A92648FEF746FA00212448FEF760F941
:102770003DE0022C08D101A92248FEF73BFA0021D6
:102780002048FEF755F932E0032C0AD101A91D4873
:102790004838FEF72FFA00211A484838FEF748F962
:1027A00025E0042C0AD101A916483038FEF722FA98
:1027B000002114483038FEF73BF918E0052C0AD107
:1027C00001A910481830FEF715FA00210D481830FD
:1027D000FEF72EF90BE0062C09D101A9074818389D
:1027E000FEF708FA002105481838FEF721F9012103
:1027F0002046FFF763FE10B070BD0000B8640240D1
:1028000004100140A060024004440040044800401D
:10281000044C0040045000400414014002460020D3
:10282000B1F5007F00D100BF13880B4201D0012019
:1028300000E00020704770B5024600240023002508
:102840000020A1F510666A3E00D100BFC1F3421519
:1028500001F01F03012606FA03F3012D02D1968928
:10286000334006E0022D02D1168A334001E0968AF9
:1028700033400C12012606FA04F41688344013B1D2
:102880000CB1012000E0002070BDF0B5034600242B
:10289000002600250020A1F510676A3F00D100BF87
:1028A0001846C1F3421401F01F06012707FA06F586
:1028B000012C01D10C3004E0022C01D1103000E0D9
:1028C00014301AB107682F43076002E00768AF436E
:1028D0000760F0BD2DE9FF4705460E460024A146DE
:1028E00000BFA046B08900B100BF2C8A24F4405438
:1028F000F08804432C82AC8941F20C608443B08898
:1029000031890843718908430443AC81AC8A24F4BB
:102910004074B0890443AC826846FEF707FC204847
:10292000854202D01F48854202D1DDF80C9001E0BB
:10293000DDF80890A88910F4004F08D009EBC90011
:1029400000EB091031684900B0FBF1F707E009EB33
:10295000C90000EB091031688900B0FBF1F7642071
:10296000B7FBF0F004012009642101FB1078A8896D
:1029700010F4004F08D0322000EBC800B0FBF1F09B
:1029800000F00700044308E0322000EB0810642147
:10299000B0FBF1F000F00F0004432C81BDE8FF878D
:1029A000001001400014014008B5C02040F224434B
:1029B0000C224FF4613100900120FEF7EBFE4FF442
:1029C000806205490120FFF72FFE4FF48062034922
:1029D0000120FFF77DFC08BD9C3400209C380020BE
:1029E00070B504460E461546012C0DD100BF4FF0C0
:1029F00020513048FEF7DEF80028F8D02A4631464C
:102A00002D48FDF739FC4FE0022C0CD100BF2B49BB
:102A10002B48FEF7CFF80028F9D02A46314629483E
:102A2000FDF72AFC40E0032C0ED100BF4FF0C0514F
:102A300023484838FEF7BEF80028F7D02A4631462A
:102A40002148FDF719FC2FE0042C0DD100BF1F49D0
:102A50001B483038FEF7AEF80028F8D02A46314639
:102A60001B48FDF709FC1FE0052C0ED100BF4FF0FD
:102A7000205113481830FEF79DF80028F7D02A4659
:102A800031461448FDF7F8FB0EE0062C0CD100BFD0
:102A90000A4908481838FEF78DF80028F8D02A4669
:102AA00031460D48FDF7E8FB29462046FFF706FDB5
:102AB00070BD0000B86402409C340020000020205B
:102AC000A060024070000020720000202000002062
:102AD00074000020760000207800002001468888DD
:102AE000C0F308007047C1F308028280704770B5D8
:102AF000044640F225512068FFF79DFEE0B12068B2
:102B0000FFF7ECFFC5B2E18AA0684554E08A401C9B
:102B100080B2E082E189884201DB0020E082608BA4
:102B2000E189884202DA608B401C6083606A10B1E0
:102B30002846616A884700BF40F227712068FFF786
:102B40007AFE08B3A08A60B9002240F2277120689B
:102B5000FFF79BFE012240F226612068FFF795FEF9
:102B600037E0638A6268D15C2068FFF7BCFF608A47
:102B7000401C80B26082A189884201DB0020608213
:102B8000A08A401EA08224E040F226612068FFF760
:102B900052FEF0B1A08A50B9002240F226612068AE
:102BA000FFF773FE206AA0B1206A804711E0638AB4
:102BB0006268D15C2068FFF796FF608A401C80B293
:102BC0006082A189884201DB00206082A08A401EC9
:102BD000A08270BD00BFFEE70FB4054B10B503A97E
:102BE000044A029800F002F910BC5DF814FB0000E2
:102BF000ED650008500100200FB4084B10B504A982
:102C000002AA039800F0F2F8044602A9002000F09E
:102C100084FC204610BC5DF814FB00001B35000846
:102C200037B514460846064B6A46214600F0DEF8E2
:102C300004466946002000F070FC20463EBD0000BE
:102C40001B3500087047704702E008C8121F08C112
:102C5000002AFAD170477047002001E001C1121F1D
:102C6000002AFBD1704700002DE9FF5F82B00021F0
:102C7000DDE90430020DDDF840B0034318D044F61E
:102C80001050A2F2FF3242431514119801281FD0B0
:102C9000A5EB0B00401C5FEA000A4FF000064E4F08
:102CA000DFF83891B046504615D5CAF1000413E05C
:102CB000119801244AA3012801D16FEA0B0102985F
:102CC000119AC0E90031C0E9024206B0BDE8F09FA8
:102CD000CBF10000DFE704460021404A491842EBEF
:102CE0000450CDE9001012E0E00707D032463B4621
:102CF00040464946FDF7E2FB8046894632463B4660
:102D000010461946FDF7DAFB06460F466410002C04
:102D1000EAD1DDE90401DDE90023BAF1000F06DAAA
:102D2000FDF7CCFB42464B46FDF7C8FB05E0FDF73F
:102D300037FC42464B46FDF733FC04460E46002264
:102D4000284BFDF7B5FC03D84FF0FF30014607E0F4
:102D50000022254B20463146FDF709FBFDF78FFC8D
:102D6000102409E0002C0ADB0A220023FDF7CEFA2A
:102D7000039B30321A55641E50EA0102F2D1641CE2
:102D8000039AC4F111031444119A012A03D00122B9
:102D900008430DD10AE0084304D000204FF0110B86
:102DA000119072E7A3EB0B056D1E0DE05B4504DD92
:102DB0004FF0000205F1010504E003DA4FF00002D4
:102DC000A5F10105002AECD002981199C0E9023161
:102DD000C0E9004579E70000000014400000F03F22
:102DE000300000000000F0430000E03F2DE9FF4FFD
:102DF00095B09B468946064600250FE2252877D1E7
:102E000000242746F84A0121059400E0044316F8FF
:102E1000013F203B01FA03F01042F7D130782A2815
:102E200011D06FF02F033078A0F13002092A16D8A4
:102E3000059A44F0020402EB820203EB42021044C2
:102E4000761C0590EFE759F8042B0592002A03DA67
:102E5000504244F40054059044F00204761C30784B
:102E60002E2816D116F8010F44F004042A280DD09C
:102E70006FF02F023078A0F13003092B09D807EB4F
:102E8000870302EB4303C718761CF3E759F8047B6A
:102E9000761C30786C280FD006DC4C2817D06828B8
:102EA0000DD06A2814D104E0742810D07A280FD1EC
:102EB0000DE044F400140AE044F4801401E044F40A
:102EC00040147278824202D104F58014761C761C7C
:102ED000307866280BD013DC582877D009DC00281E
:102EE00075D04528F6D04628F4D047281AD19DE160
:102EF00018E0632835D0642879D0652812D195E18F
:102F0000702873D008DC6728F1D069286FD06E284C
:102F10000DD06F2806D1B5E073282CD0752875D058
:102F2000782874D05A46179990476D1C75E1C4F300
:102F30000250022809D003280DD0D9F80010042827
:102F40000DD00D6009F1040967E1D9F80010EA1706
:102F5000C1E90052F6E7D9F800100D80F2E70D70D4
:102F6000F0E719F8041B8DF8001000208DF801001F
:102F7000EA46012003E059F804AB4FF0FF30610747
:102F80004FF0000102D40DE008F101018846B9427A
:102F90000FDA8045F8DB1AF808100029F4D108E0B0
:102FA00008F1010188468142FADB1AF8081000296D
:102FB000F6D105985B46A0EB080721463846179ADC
:102FC00000F094FA284400EB080507E04DE029E101
:102FD0000DE01AF8010B5A4617999047B8F101080D
:102FE000F7D25B4621463846179A13E142E00A229F
:102FF0000092C4F302524FF0000A022A08D059F896
:1030000004CB032A4FEAEC710AD00DE029E02AE054
:1030100009F1070121F00702F2E802C1914609E037
:103020000FFA8CFC4FEAEC71042A03D14FFA8CFCA6
:103030004FEAEC71002907DA0A460021DCF1000CA6
:1030400061EB02012D2202E0220504D52B228DF82E
:103050000420012203E0E20701D02022F7E7904696
:1030600059E00A2102E010220DE010214FF0000A81
:1030700000910BE010224FF0000A44F004040827EE
:10308000009203E008224FF0000A0092C4F30252BB
:10309000022A05D059F804CB0021032A08D009E000
:1030A00009F1070121F00702F2E802C1914605E0AB
:1030B0001FFA8CFC042A01D10CF0FF0C4FF0000821
:1030C000220728D5702806D0009B83F0100353EA0E
:1030D0000A0305D00EE040228DF80420012208E00A
:1030E0005CEA010206D030228DF804208DF805003C
:1030F00002229046009B83F0080353EA0A030AD198
:103100005CEA010201D1620705D530228DF8042066
:103110004FF001087F1E582804D034A003900EA859
:1031200002900DE036A0F9E753466046009AFDF79D
:10313000EDF884460398825C0298401E029002706B
:103140005CEA0100F0D1029806A9081A00F1200AF1
:10315000600702D524F4803400E00127574502DDE2
:10316000A7EB0A0000E0002000EB0A0100900598A0
:103170004144401A0590E00306D45B462146179A65
:10318000059800F0B3F90544002706E001A85A4667
:10319000C05D179990476D1C7F1C4745F6DBE00327
:1031A0000CD55B462146179A059800F09FF9054417
:1031B00004E030205A46179990476D1C0099481E2C
:1031C00000900029F5DC08E0029802995A46007840
:1031D000491C0291179990476D1CBAF10001AAF1A0
:1031E000010AF1DC65E100000928010030313233C9
:1031F0003435363738396162636465660000000033
:10320000303132333435363738394142434445461C
:103210000000000000F058F90544761C30780028C2
:103220007FF4ECAD19B02846BDE8F08F620700D4FA
:10323000062709F1070222F0070CFCE80223E14609
:1032400003F000485FEA080C02D00FF2702C0DE08A
:103250005FEA045C02D50FF2682C07E05FEAC47CE9
:1032600002D00FF2602C01E0AFF2700C4FF0FF388B
:1032700023F00043CDF850C065280CD006DC45286B
:1032800009D046281DD047283DD13DE0662818D0FA
:1032900067287ED138E00021112F01DB112000E0EA
:1032A000781CCDE9000106A90EA8FFF7DDFCDDE9D9
:1032B0000F010E9A03910021009207F1010A049177
:1032C0004DE04FF000400097CDE9011006A90EA88F
:1032D000FFF7CAFCDDE90F0203920E9B1199002251
:1032E000DDF80CA00093049211B9791C00EB010ADF
:1032F000B7EB0A0004D4C0F1FF3007F1010A0490D3
:10330000AAEB0700019044E0012F00DA0127002119
:10331000112F01DD112000E03846CDE9000106A99A
:103320000EA8FFF7A1FCDDE90F010E9A0391002121
:1033300004910092BA4621070CD40399514500DA52
:103340008A46BAF1010F05DD009AAAF10101515C2C
:10335000302908D0B84202DA10F1040F06DA012150
:10336000CDE9011015E0AAF10101E9E7002805DC2B
:10337000049901440491AAEB000102E0411C51456B
:1033800000DD8A460499401A401C01904FF000402D
:103390000290200704D40198504501DBCDF8048049
:1033A00000208DF84F0002980DF14F07B0F1004F4B
:1033B00025D02B200E9002984FF0020800280CDA3E
:1033C000404202902D200E9007E00A210298FCF75F
:1033D00087FF3031029007F8011DB8F10001A8F114
:1033E0000108F2DC02980028EFD1791E0E980870CF
:1033F000307800F0200040F0450007F8020D12A8D8
:10340000C01B00F107081498007800B1012000EB00
:103410000A01019801EBE07105984144401A401EF1
:103420000590E00306D45B462146179A059800F004
:103430005DF805441498007818B15A4617999047DA
:103440006D1CE00324D55B462146179A059800F0D1
:103450004DF805441CE00498002807DBDDE9030172
:10346000884203DD0098405C179901E017993020ED
:103470005A469047049805F10105401C04900198B4
:10348000401E019004D12E205A46179990476D1C7A
:10349000BAF10001AAF1010ADDDC05E017F8010B21
:1034A0005A46179990476D1CB8F10001A8F1010820
:1034B000F4DC5B462146179A0598ABE62D00000028
:1034C0002B000000200000002DE9F04104460025FB
:1034D0001E461746880404D405E039462020B0472C
:1034E0006D1C641EF9D52846BDE8F0812DE9F04138
:1034F000044600251E469046C80301D5302700E04B
:103500002027880404D505E041463846B0476D1CA5
:10351000641EF9D52846BDE8F0810A68531C0B608B
:10352000107070472DE9F05F92468B46064601F019
:10353000D9F832463EA10E20FFF784FB6FF0010759
:10354000002E03DD3F480179B14202DA32463EA146
:1035500065E08046C6EBC6026FF01B09016809EB07
:1035600082000D182878072802D032463EA156E086
:10357000E878012802D0324644A150E0284604F001
:103580004FF804000ED1A8786FF00304C0074AD1A9
:103590000321284601F03EF9C10732D0284604F045
:1035A0003FF80446C4EBC4076FF01900D8F80010C8
:1035B00000EB8700AA78095C02F0710221F071012A
:1035C0001143D8F8002046461154D8F8001009EBF2
:1035D0008700084405F014FC30686FF0150101EB1A
:1035E0008701435A6FF00F0101EB870142585146A2
:1035F000584600F087F822462DA10E20FFF722FB47
:1036000011E0810707D5324630A10E20FFF71BFBE2
:103610006FF0050407E0800605D5324632A10E2082
:10362000FFF711FB3C4601F0EBF82046BDE8F09FA8
:1036300041636365707420536F636B657420256408
:103640000A000000B8D100084163636570742C2043
:10365000536F636B6574202564206E6F74207661F0
:103660006C69640A000000004163636570742C207B
:10367000536F636B6574202564206E6F74206C69D2
:103680007374656E696E670A0000000041636365CC
:1036900070742C20536F636B6574202564206E6FEB
:1036A000742053545245414D20747970650A0000CE
:1036B000204368696C6420536F636B6574202564D4
:1036C00020636F6E6E65637465640A0041636365B1
:1036D00070742C20536F636B657420256420636CB9
:1036E0006F7365640A0000004163636570742C2089
:1036F000536F636B6574202564206B696C6C656423
:103700000A00000010B50C46002811D0002C0FD084
:10371000216810290CD30121018019BA090C4180BC
:10372000426008220021083004F0C3F81020206015
:1037300010BD00002DE9F0473F4C0646E07B38B154
:103740003EA10020FFF77FFAB00F3DD1032039E002
:1037500026F040400F3020F00307002E08DB3A46E9
:103760003CA10020FFF76EFA03F0D0FC0120E073CB
:10377000B00F4FF000090BD02068616838448842D0
:1037800006D9E07B00B384F80F9003F0C7FC1BE080
:103790003448056828686A68411B891AB94216D2FC
:1037A000054600680028F5D1E07B48B184F80F9009
:1037B00003F0B4FCA3892CA100202268FFF743FA90
:1037C000B00F01D105F0F2FB0020BDE8F0873AB35D
:1037D000501929680160286000F1080547602068D9
:1037E00007442760A089401C80B2A081E17BD1B151
:1037F00094F80E8084F80E90824684F80F9003F0BF
:103800008DFCB8F1000F04D0424622A10020FFF742
:1038100019FA53463A4625A10020FFF713FA05E0AE
:103820006F600835DBE7A07B401CA0732E80A5F8F5
:1038300002902846C9E70000A0DA0020416C6C6FB6
:10384000632C205265637572736976652063616CC1
:103850006C0A0000416C6C6F6320256420627974EF
:1038600065730A0074D10008416C6C6F632C204EA4
:103870006F206D656D6F72792055736564202564C6
:103880002062797465732C20256420626C6F636BF1
:10389000730A0000204952515F416C6C6F63202510
:1038A0006420626C6F636B730A00000020557365BF
:1038B0006420256420627974657320282564206261
:1038C0006C6F636B73290A002DE9F0418846074647
:1038D00000F032FB00286DD03A4D00262C680BE03A
:1038E000207838B10422394604F10A0003F0BAFF07
:1038F000012816D00E34761C2879B042F0DC32A1B3
:103900000420FFF79FF93946012001F04BFB4146A7
:10391000002001F047FB2F49384603F077FE50B1F5
:1039200025E0721C2CA10420FFF78CF939460120F8
:1039300001F038FB33E02748001D04F034F910B1E2
:1039400000262C6810E0BDE8F0412AA10420FFF712
:103950007AB9207830B106224146201D03F082FF5B
:10396000012829D00E34761C2879B042F1DC0120E0
:1039700000F066F804001DD0024625A10420FFF7E0
:1039800061F9C4EBC4016FF00D0202EB410128683C
:1039900004224418394604F10A0003F06FFF06229E
:1039A0004146201D03F06AFF6879E070A879A07095
:1039B00003202070BDE8F081721C1AA10420FFF7DB
:1039C00041F9F1E784D1000843616368655F4164B0
:1039D000640A0000B0DA002043616368652C20456A
:1039E0006E747279202564207265667265736865ED
:1039F000640A000043616368655F6164642C20476A
:103A000061746577617920756E6B6E6F776E0A00F1
:103A100020456E7472792025642061646465640AAF
:103A2000000000002043616368652C20456E7472BD
:103A300079202564207265667265736865640A0082
:103A40002DE9F04123490446012005460A6803E0B8
:103A500013784BB10E32401C0B798342F8DA002008
:103A60004E7901220B680DE015705470BDE8F081AD
:103A70005F78012F04D1DF78B74201D83E46104667
:103A80000E33521C0F799742F2DA88B94E7901222F
:103A90000B6809E05F78022F04D1DF78B74201D8C4
:103AA0003E4610460E33521C0F799742F2DA50B15F
:103AB0000968C0EBC0026FF00D0303EB4202114432
:103AC0000D704C70D2E704A10420FFF7BCF8002071
:103AD000CCE7000084D1000843616368655F616CD6
:103AE0006C6F632C2043616368652066756C6C0A9B
:103AF000000000002DE9F0412A4C884606460027C8
:103B000025680BE0287838B10422314605F10A0017
:103B100003F0A8FE012843D00E357F1C2079B8425F
:103B2000F0DC304600F008FA002839D01E49304653
:103B300003F06CFD002833D01CA10420FFF782F8AD
:103B40003146012001F02EFA4146002001F02AFA08
:103B50000120FFF775FF050022D0024617A10420BF
:103B6000FFF770F8104A3146002000F0FBFBC5EB70
:103B7000C5016FF00D0202EB4101206804224518D7
:103B8000314605F10A0003F079FE06224146281D60
:103B900003F074FEE079E870A079A8700320287023
:103BA000BDE8F08184D10008B0DA00204361636889
:103BB000655F4561726C790A0000000020456E74F3
:103BC00072792025642061646465640A0000000045
:103BD0002DE9F0478846814633A10420FFF732F8EB
:103BE0004946012001F0DEF93249484603F00EFD56
:103BF00060B931A10420FFF725F82E4C201D03F0F9
:103C0000D2FF40B104F104094FF00008314D002704
:103C100002262C680DE030A137E0207838B104226C
:103C2000494604F10A0003F01DFE012829D00E3494
:103C30007F1C2879B842F0DC4046FFF701FF040002
:103C40001CD01C4A4946002000F08CFBC4EBC40188
:103C50006FF00D0202EB4101286804224418494626
:103C600004F10A0003F00AFE06222349201D03F096
:103C700005FEA879A070E879E07026700020BDE804
:103C8000F0872078032804D21CA10420FEF7DBFF74
:103C9000F4E77A1C20A10420FEF7D4FF6078012805
:103CA00000D166702046EAE743616368655F466954
:103CB0006E640A00B0DA0020204950206E6F742034
:103CC0006C6F63616C2C2055736520476174657758
:103CD00061790A0084D1000843616368655F6669A1
:103CE0006E642C204761746577617920756E6B6E08
:103CF0006F776E0A000000005ED2000843616368BF
:103D0000655F66696E642C20556E7265736F6C76A4
:103D10006564204D41430A0020456E747279202568
:103D20006420666F756E640A000000002DE9F041A2
:103D30004C4D4D49287810B90A7B920770D5012265
:103D4000401C8A7328700027484E83E0C0EBC000F7
:103D50006FF00D01326801EB400014182078002844
:103D600075D0E07820B1401E10F0FF00E0706ED1F9
:103D7000607840B104223E4904F10A0003F072FD6C
:103D8000012800D167702A783AA10420FEF75AFF73
:103D90006078022816D03DA3B0B13DA23EA1042018
:103DA000FEF750FF04F10A01012001F0FBF8211D8C
:103DB000002001F0F7F86078012807D028B3022826
:103DC00023D044E038A3E7E739A2E7E720780328C7
:103DD00038D0A078B0B3401E10F0FF00A07031D0F2
:103DE00035A10420FEF72EFF02202070F079E0704C
:103DF00004F10A00054603F0D6FE1D4A121F08B161
:103E000029461AE00021201D18E02078032808D058
:103E1000A078B8B1401E10F0FF00A07012D002E0F0
:103E20001EE00420207028A10420FEF70BFF104A9A
:103E3000F079E070121F04F10A010020BDE8F041A2
:103E400000F090BA24A10420FEF7FCFE2770287829
:103E5000401C28703179C0B28142BFF477AF2F7017
:103E6000BDE8F08148010020ECDA002084D1000890
:103E7000B4DA002043616368652C20456E74727962
:103E80002025642074696D656F75740A0000000058
:103E900044796E616D69630020547970653A20251C
:103EA0007325730A000000002D496E7573650000CC
:103EB0005374617469630000205265736F6C76659A
:103EC00020656E7472790A002052656672657368A7
:103ED00020656E7472790A0020456E7472792072C2
:103EE000656C65617365640A0000000070B50A4C7A
:103EF0000AA104202279FEF7A5FE00210A4601232B
:103F0000206803E0027043700E30491C25798D4211
:103F1000F8DC0848426070BD84D10008496E6974BD
:103F20002043616368652C20256420656E74726986
:103F300065730A004801002001787F2912D00E2203
:103F4000B2EB111F0ED0006860B1411C0AD00649C7
:103F50000A68896842400A4202D10143491C01D0E3
:103F60000120704700207047B0DA00200649002089
:103F700048600648007A002804D0054A002011460F
:103F800000F0F0B9704700004801002084D100081B
:103F9000B0DA00200349002248600146104600F0D4
:103FA000E1B90000480100202DE9F047244F054603
:103FB000002600F1080A00F10E094FF009083C68DC
:103FC0001DE02078012818D9E98898FA88F0B1EB2B
:103FD000104F0AD10622211D504603F043FC60B168
:103FE0000422494604F10A0015E0042204F10A0102
:103FF000484603F037FC01280AD00E34761C387985
:10400000B042DEDCBDE8F0470EA10420FEF71BBE87
:1040100006225146201D03F031FC721C10A1042021
:10402000FEF710FE6078022801D1012060707879D7
:10403000E070B879A07003202070BDE8F087000020
:1040400084D10008526563656976652C2057726FCC
:104050006E6720726573706F6E73650A00000000F2
:104060002043616368652C20456E74727920256455
:10407000207265667265736865640A002DE9F04117
:10408000044658A10420FEF7DDFD20882A2801D22D
:104090005BA113E0608A012109BAB0EB114F0CD18A
:1040A000A08A4FF4006109BAB0EB114F05D1A07D91
:1040B000062802D1E07D042805D058A1BDE8F041D2
:1040C0000420FEF7C0BD04F11200064601F046F9D7
:1040D000208B04F1240700BA04F1200804F11A052A
:1040E000010C2A340A297BD2DFE801F07A054E7AE6
:1040F0007A7A7A7A3E6904224F49204603F0B2FB6D
:1041000028B129464046FFF7DFFB022137E00422B1
:104110004146204603F0A6FB00284ED0474F00261C
:104120003C681DE02078032818D306222946201D6C
:1041300003F098FB90B1721C41A10420FEF782FDB0
:104140000422414604F10A0003F098FB7879E070FC
:10415000B879A07003202070BDE8F0810E34761C81
:104160003879B042DEDC28E006223C49384603F0CC
:1041700079FB78B329464046FFF7A6FB0921304674
:10418000BDE8F04100F090B8204603F00CFD30B1DE
:1041900004222949204603F065FBB0B90DE0304CFC
:1041A00061680029D8D00422404603F05BFB002858
:1041B000D2D0616800200870CEE72AA10BE0062269
:1041C0002649384603F04EFB20B13046BDE8F041A9
:1041D000FFF7EABE28A1BDE8F0410420FEF732BD9A
:1041E0002BA1F8E72A2A2A2050726F63657373693E
:1041F0006E67206672616D65202A2A2A0A00000017
:10420000526563656976652C204672616D65207420
:104210006F6F2073686F72740A00000052656365E7
:104220006976652C205061636B657420636F7272D0
:1042300075707465640A0000B0DA002084D100084B
:104240002043616368652C20456E74727920256473
:10425000207570646174650A000000003000002061
:10426000480100202049676E6F7265642C205772E8
:104270006F6E672049500A002049676E6F7265644F
:104280002C2057726F6E67204D41430A00000000DA
:104290002049676E6F7265642C2057726F6E6720BD
:1042A0004F70636F64650A002DE9F0410E460546C4
:1042B00027A10420FEF7C6FC2A20FFF73BFA04469C
:1042C00005F1080106220F46001D03F0D7FA062269
:1042D000224904F10A0003F0D1FA40F6060000BAC0
:1042E000000C2082012000BA000C60824FF40060B4
:1042F00000BA000CA0820620A0750420E07530BA38
:10430000000C20830622394604F1240003F0B6FA9B
:10431000042205F10E0104F12A0003F0AFFA06228F
:104320000E4904F11A0003F0A9FA04220C4904F121
:10433000200003F0A3FA04F1120001F00FF8204668
:1043400004F0BCFB2046BDE8F04102F06FB900006C
:1043500053656E645F5265706C790A00300000200E
:10436000B0DA00202DE9F0410F46054616462CA193
:104370000420FEF767FC2A20FFF7DCF904460DB1A4
:10438000294600E02A490622201D03F077FA06227A
:10439000284904F10A0003F071FA40F6060000BA59
:1043A000000C2082012001BA090C6182C10209BA05
:1043B000090CA1820621A1750421E17505B108202F
:1043C00000BA000C208306221A4904F11A0003F0F7
:1043D00055FA0DB1294600E01749062204F12400E0
:1043E00003F04CFA0EB1314600E01349042204F107
:1043F000200003F043FA0FB1394600E00E490422D1
:1044000004F12A0003F03AFA04F1120000F0A6FFCA
:10441000204604F053FB2046BDE8F04102F006B907
:1044200053656E645F526571756573740A000000B0
:104430005ED20008300000206CD20008054901EB74
:1044400080000A684068824201D201207047002043
:1044500070470000A0DA00202DE9F04190460646A2
:104460000D4600F03FF9324630A10E20FEF7EAFB80
:104470006FF00107002E03DD304A1079B04202DAF6
:1044800032462FA12DE0C6EBC6016FF01B0310686A
:1044900003EB810144182078012802D032462FA175
:1044A0001FE06FF00207B8F1100F02D2324633A1BD
:1044B00017E0688800BA030C0021106818E000BFFC
:1044C00090F800C0BCF1020F10D3B0F804C09C45B6
:1044D0000CD190F803C094F80380C44506D132464D
:1044E0002FA10E20FEF7AFFB3C4619E01C30491C03
:1044F00092F804C08C45E3DC6868A060688800BA64
:10450000000CA08002202070E078022802D1204612
:1045100000F008F9A18804F1080000F015FD00245E
:1045200000F06EF92046BDE8F081000042696E643B
:1045300020536F636B65742025640A00B8D10008AE
:1045400042696E642C20536F636B65742025642070
:104550006E6F742076616C69640A000042696E6453
:104560002C20536F636B6574202564206E6F74205C
:10457000637265617465640A0000000042696E64DC
:104580002C20536F636B657420256420696E7661FF
:104590006C696420706172616D657465720A0000F7
:1045A00042696E642C20536F636B65742025642010
:1045B000706F727420757365640A000070B51749D6
:1045C000C0EBC0036FF01B0404EB83030A680C68A4
:1045D0001344002203E0257835B11C34521C0D79B8
:1045E0009542F8DC002070BD0121E17003212170AB
:1045F0009968A1609988A180A178002241F0020108
:10460000A1706074064B1146012004F03BFF6070FE
:10461000A18805F009F8012070BD0000B8D100089C
:104620008D90000810B50446807C084205D0A17426
:10463000E07C00F0C1F80020E07410BD10B50A4C19
:10464000607908B109A300E009A322790BA10E202B
:10465000FEF7F8FA2079C0EBC00082002068BDE8C0
:104660001040002103F025B9B8D100085254580079
:104670005374616E64616C6F6E650000496E69749D
:1046800020256420536F636B6574732C2025730A97
:104690000000000070B50446407848B1E178022976
:1046A00019D004F095FC607806F072FA0020607072
:1046B000204603F0A1FFA0780025400704D520255F
:1046C00029462046FFF7AEFF1C220021204603F0BA
:1046D000F0F8A57470BD06F081FE607807F0D6F89A
:1046E000E4E70000034800235A1E1946806908F0D9
:1046F00083B800002000002030B5094C034601209B
:10470000226807E055789D4202D1D5788D4205D0C8
:104710001C32401C25798542F4DA002030BD0000AF
:10472000B8D1000881780A0706D441F008018170E9
:104730008188407806F03EBF7047000070B51C4885
:10474000007BC00732D01B4E002534682BE0207858
:10475000072826D2DFE800F0251A1A04251A0E00D1
:10476000607804F007FF02281BD2A188607804F06B
:104770005BFF16E0607804F0FDFE022811D80221EC
:104780002046FFF74FFF012020700AE0A08A40B1C9
:10479000401E0004000CA08203D110212046FFF728
:1047A00041FF1C346D1C3079A842D0DC70BD000084
:1047B000ECDA0020B8D10008034800231A46194655
:1047C000C06908F023B900002000002070B50B4C30
:1047D00000231A461946A06908F018F900235D1E47
:1047E0002A461946E06908F007F82A46A069BDE89C
:1047F00070400023194607F0FFBF00002000002092
:10480000034800231A461946806908F0FFB80000E3
:104810002000002070B5044641F02000A074A0786C
:1048200004F1130540F00400A0702846FFF7CEFF06
:10483000E07C0028F9D1A078002120F00400A070CD
:10484000A07CA17470BD000070B50546304800EB37
:1048500005142068804700283ED02079052802DA18
:104860000520207152E020790A2803DA2079401CC3
:1048700020714BE0A07A38B90120A07205EB450108
:10488000491CC8B200F0FCF8208900283EDDE08811
:10489000218988420DDAE088401C80B2E0802189BD
:1048A000884233D105EB4501C91CC8B200F0E8F8D5
:1048B0002CE0E07A002829DD207B401CC0B2207368
:1048C000E17A884222DB0020207305EB4501491C78
:1048D000C8B200F0D5F819E02079052802DD0520DE
:1048E000207110E0207918B12079401E20710AE073
:1048F000A07A012807D10020A07205EB4501891C90
:10490000C8B200F0BDF80020E080207370BD000048
:10491000C42B00200B48807A0A4AD27A904201D1F7
:10492000002070470748807A064A115C1046807A5A
:10493000401CC0B290720A2801DB00209072084629
:10494000EFE70000642C002001460020244A914239
:1049500001D1012042E0234A914201D102203DE0F1
:10496000214A914202D14FF4803037E01F4A9142F0
:1049700002D14FF4003031E01D4A914202D14FF490
:1049800080202BE0B1F1804F01D1012026E0194AAF
:10499000914201D1022021E0174A914201D1042025
:1049A0001CE0164A914201D1082017E0144A9142B6
:1049B00001D1102012E0134A914201D120200DE0D4
:1049C000114A914201D1402008E0104A914201D1A0
:1049D000802003E00E4A914200D188157047000004
:1049E000000001400004014000400140004401403B
:1049F000004801400004004000080040000C004056
:104A0000001000400014004000180040001C00404E
:104A10000020004010B5002404E02046FFF714FFFA
:104A2000601CC4B20A2CF8DB10BD0000012806D1BE
:104A30001049496981F480610E4A516119E00228E8
:104A400006D10D49096881F080010B4A116010E020
:104A5000032806D10849096881F48071064A11606B
:104A600007E0042805D10549096881F00401034ADB
:104A700011607047002002401414024014080240E4
:104A80000649C97A054A50541146C97A491CC9B227
:104A9000D1720A2901DB0021D1727047642C0020F9
:104AA0002DE9FF5F04460D4691469A466F488442C1
:104AB0000BD06F48844208D06E48844205D06E48BF
:104AC000844202D06D48844207D12046FFF73CFF64
:104AD00083460121FCF71AFB06E02046FFF734FF6E
:104AE00083460121FCF702FB2DB900212046FCF78B
:104AF000D4FDBDE8FF9F5D4884420BD05C488442F2
:104B000008D05C48844205D05B48844202D05B48B0
:104B1000844202D15A48066802E0594800684608B3
:104B2000642D0AD242F20F7842F21070B6FBF0F018
:104B3000B0FBF5F0401E87B213E040F6B830854276
:104B400009D24FF063086420B6FBF0F0B0FBF5F03B
:104B5000401E87B205E04FF00008B6FBF5F0401E9E
:104B600087B20297ADF804800020ADF80C00ADF8D4
:104B700006008DF80E0001A92046FCF7B5FD0121C5
:104B80002046FCF77BFD012211462046FCF7A2FDE2
:104B900001212046FCF781FD4FF0000B3348844291
:104BA00002D03548844202D14FF0190B4FE0B4F1E6
:104BB000804F02D14FF01C0B49E03248844202D1B1
:104BC0004FF01D0B43E03048844202D14FF01E0BE2
:104BD0003DE02E48844202D14FF0320B37E02C48A2
:104BE000844202D14FF0360B31E02A48844202D190
:104BF0004FF0370B2BE02748844202D14FF0370BA0
:104C000025E02448844202D14FF0370B1FE01848BA
:104C1000844202D02048844202D14FF02C0B16E08F
:104C20001448844202D14FF0180B10E0134884421C
:104C300002D14FF01A0B0AE01848844202D14FF01B
:104C40002B0B04E01548844201D14FF02D0B8DF859
:104C500000B08DF801908DF802A001208DF80300BE
:104C60006846FCF7F7F900BF43E700000000014089
:104C70000004014000400140004401400048014060
:104C80008C0000200004004000080040000C0040A0
:104C90000010004000140040001C004000180040BC
:104CA00000B5002200F006F8C04380B200BA000C44
:104CB00000BD000005E000BF30F8023B891E5BBA72
:104CC0001A440129F8DC11B1007802EB002290B2FD
:104CD00000EB124000EB104080B27047084400EB3C
:104CE000104080B2704700002DE9F0470646FFF7FC
:104CF000F9FC32463DA10E20FDF7A4FF002E03DD96
:104D00003E4D2879B04207DA32463DA10E20FDF72C
:104D10009AFF6FF0010464E0C6EBC6016FF01B0759
:104D2000286807EB810144182078E8B3062812D0E0
:104D3000E178022912D007281CD0607804F0E8FA44
:104D4000607804F017FC02283ED9A0786FF00305C4
:104D5000C00737D12EE06FF0060442E02046FFF78F
:104D600099FC3DE0C0EBC000296807EB80000844D7
:104D7000FFF790FC204602F053FC0028F2D10127F7
:104D80008146D5F8008011E098F81100B04208D1B2
:104D900088F8119098F80000032802D14046FFF7E8
:104DA00079FC08F11C0800E01AE07F1C2879B84261
:104DB000EADAD3E70620207002212046FFF72AFD19
:104DC000800701D42C460CE0A0788007C6D5607C13
:104DD0000028C3D003202070A188607804F024FC50
:104DE0000024FFF70DFD2046BDE8F087436C6F738C
:104DF00065736F636B65742025640A00B8D1000881
:104E0000436C6F7365736F636B65742C20536F63B2
:104E10006B6574202564206E6F742076616C696404
:104E20000A0000002DE9F047002488B0DFF8A090C8
:104E30008A460546274601260DF10408687B304264
:104E400007D009EB070108EB0400042202F016FD6D
:104E500004443F1D7600402EF0DB08EB04000021E7
:104E600000F8011CA81C02F099FE0446284602F036
:104E700095FE0246234617A10920FDF7E3FE05F142
:104E8000080002F090FE0446281D02F08CFE024647
:104E9000234617A10920FDF7D5FE05F1100002F009
:104EA0007DFE044605F10E0002F078FE034601AADD
:104EB00017A109200094FDF7C5FE5FEA0A0004D09F
:104EC00002461CA10920FDF7BDFE08B0BDE8F08731
:104ED00024D2000820506F72747320203A2053723D
:104EE000633D25642C204473743D25640A00000052
:104EF000205365676D656E743A205365713D307857
:104F000025582C2041636B3D307825580A0000005D
:104F100020436F6E74726F6C3A205B25735D20576F
:104F2000696E3D25642C20436B733D307825303409
:104F3000580A0000204C656E677468203A2025648A
:104F40002062797465730A000EB5C2788378CDE962
:104F5000003202914378027802A10E20FDF772FE22
:104F60000EBD000020416464726573732025642EB9
:104F700025642E25642E25642C20706F72742025E4
:104F8000640A00003EB54A78CC788B788DE81C0026
:104F90000B78024602490B20FDF754FE3EBD00008F
:104FA00044D200081FB560B1012809D1CA788878B9
:104FB000CDE900024B780A7808A10420FDF742FEF3
:104FC0001FBD88784C790B79CA788DE81D004B7825
:104FD0000A7807A10420FDF735FE1FBD20495020A7
:104FE000203A2025642E25642E25642E25640A008F
:104FF000204D4143203A20253032583A253032584E
:105000003A253032583A253032583A253032583A1B
:10501000253032580A0000001CB50446C17B807B55
:10502000CDE90001637B227B19A10520FDF70AFE73
:10503000E17CA07CCDE90001637C227C1AA10520E3
:10504000FDF700FE1E49627A00200B5C934219D1E5
:105050001B4900EB8000091D42181AA10520FDF72D
:10506000F1FDA0881BA100BA020C0520FDF7EAFDA6
:10507000608802B000BA020CBDE810401AA10520F9
:10508000FDF7E0BD401C0428DFDB1DA1E6E70000C2
:10509000205372632E204950203A2025642E256427
:1050A0002E25642E25640A0020446573742E495011
:1050B000203A2025642E25642E25642E25640A00BE
:1050C0000CD200082050726F746F636F6C3A202509
:1050D000730A0000204964656E7469662E3A2030B8
:1050E00078253034580A0000204C656E67746820BB
:1050F000203A2025642062797465730A000000005C
:105100002050726F746F636F6C3A203078253032A4
:10511000580A000010B50446408D0AA100BA020CDE
:105120000620FDF78FFDA08D0BA100BA020C062012
:10513000FDF788FD2288BDE81040083A0BA1062043
:10514000FDF780BD204964656E7469662E3A203093
:1051500078253034580A00002053657175656E63F8
:10516000653A203078253034580A000020506179A3
:105170006C6F6164203A2025642062797465730A3B
:105180000000000008B5074AB0F93010B0F92E3021
:10519000527A01EBE3004243009103A10920FDF79D
:1051A00051FD08BD74D100082052544F3D25646D57
:1051B00073202873613D25642C2073763D25642976
:1051C0000A00000010B5044600880EA100BA020CC7
:1051D0000820FDF737FD60880EA100BA020C0820F8
:1051E000FDF730FDE0880FA100BA020C0820FDF7A2
:1051F00029FDA088BDE8104000BA020C0EA10820CD
:10520000FDF720BD205372632E20506F72743A2038
:1052100025640A0020446573742E506F72743A201E
:1052200025640A0020436865636B73756D203A201E
:105230003078253034580A00204C656E6774682039
:1052400020203A2025642062797465730A000000EA
:105250001FB50446437A027AC17980798DE80F0040
:105260006379227917A10120FDF7ECFC207BE37B19
:10527000A27B617B8DE80F00E37AA27A1CA101205A
:10528000FDF7E0FC208A254900BA020C002000BF8F
:1052900031F8103093420FD120490A3101EB8002DE
:1052A0001FA10120FDF7CEFC228804B020A1BDE89B
:1052B00010400120FDF7C6BC401C0228E8DB22A1FB
:1052C000EFE7000020446573742E4D41433A2025DA
:1052D0003032583A253032583A253032583A253053
:1052E00032583A253032583A253032580A000000F8
:1052F000205372632E204D41433A20253032583AD4
:10530000253032583A253032583A253032583A252D
:105310003032583A253032580A0000005AD200087C
:105320002050726F746F636F6C3A2025730A00000F
:10533000204C656E67746820203A202564206279CD
:105340007465730A000000002050726F746F636F01
:105350006C3A203078253034580A00007FB5044676
:10536000234AB4F8061000200DBA32F81030B3EB1F
:10537000154F36D11E4900EB80003C3901EB40024D
:105380001CA10420FDF75EFC617C207CCDE90001BE
:10539000E37BA27B1BA10420FDF754FCE17EA07EF1
:1053A000CDE90001637E227E1CA10420FDF74AFCAA
:1053B000A07A637B227BE17A8DE80F00637A227A00
:1053C0001CA10420FDF73EFC207DE37DA27D617DD4
:1053D0008DE80F00E37CA27C21A10420FDF732FCC4
:1053E0007FBD401C0628BFDB08BA020C27A1C8E716
:1053F000AED20008204F705F436F64653A2025737A
:105400000A000000205372632E2049503A20256480
:105410002E25642E25642E25640A00002044657321
:10542000742E49503A2025642E25642E25642E259D
:10543000640A0000205372632E4D41433A20253008
:1054400032583A253032583A253032583A253032DF
:10545000583A253032583A253032580A00000000B8
:10546000204473742E4D41433A20253032583A255A
:105470003032583A253032583A253032583A2530B1
:1054800032583A253032580A00000000204F705F31
:10549000436F64653A203078253034580A000000A4
:1054A0007047000070B51FA10B20FDF7CBFB214C0E
:1054B0002068007820B120A10B202268FDF7C2FBF4
:1054C0002079C00703D021A10B20FDF7BBFB207979
:1054D000800703D523A10B20FDF7B4FB274A032146
:1054E000002005F0D7FF264C00256070A0B14421B4
:1054F00006F060F80422234904F1080002F0BEF926
:10550000042200211F4802F0D4F90320207001F08A
:105510004DF9A061658070BD1BA10B20FDF793FBC9
:10552000257070BD496E697420436C69656E740A9C
:105530000000000090D10008204F70742E363020FB
:1055400056636964205B25735D0A0000204F707408
:105550002E363720426F6F7466696C65206E616D00
:10556000650A0000204F70742E3432204E545020B3
:10557000736572766572730A00000000A555000815
:10558000FCD90020B0DA00204661696C65642074A3
:105590006F206765742055445020536F636B6574AA
:1055A0000A0000002DE9FF5FB04F0E9E1C4679787F
:1055B0001546814210D1387806280DD0ACA10B20B9
:1055C000FDF740FB432D01D0B0A102E0EC2E04D248
:1055D000B5A10B20FDF737FB18E12078022805D193
:1055E0006078012802D1A078062801D0B5A1F0E7A3
:1055F000201D02F0D8FAB969884201D0B8A1E8E7C5
:105600000622BC4904F11C0002F02CF940B104F15F
:10561000EC0002F0C8FAB849884203D0B7A1D8E735
:10562000BEA1D6E7C3A10B20FDF70CFB3978DFF84C
:105630003CA20025891EB8460AF1080A4FF0060967
:1056400004F1100B082963D2DFE801F0C26204689C
:1056500062C2C2040422002108F1040002F029F908
:10566000B9A10B20FDF7EEFAF02716E0E05D342833
:105670000CD035280CD1E0198078022801D0B9A1CE
:1056800048E0C2A10B20FDF7DDFA01E0E0198578C2
:105690003946204602F0DEFB0746B742E6D3E8076C
:1056A0000AD0C2A10B20FDF7CDFA6C21204602F0F2
:1056B000D1FB0146EC28F9D3A8070AD5C5A10B20D8
:1056C000FDF7C0FA2C21204602F0C4FB01466C28ED
:1056D000F9D34446201D02F066FAD0B15946C7A05E
:1056E000FFF750FC211DC8A0FFF74CFC05202070DF
:1056F00004225946504602F0C1F8032000F0E6FCAF
:105700000420A0830820E083C2A10B20FDF79AFAB1
:10571000AAE0C6A10B20FDF795FA77E0CEA10B20F9
:10572000FDF790FA042208F10400019902F09AF8BA
:1057300028B104225946504602F094F808B1F027E7
:1057400023E0CCA145E7E05D342817D0352817D1F8
:10575000E0198078052801D0D2A13AE7D9A10B2021
:10576000FDF770FA88F8009004225146DC4802F0F8
:1057700085F8DB49DBA0FFF705FC01E0E01985783F
:105780003946204602F05CFA0746B742DBD3E80709
:105790000AD086A10B20FDF755FA6C21204602F0B5
:1057A0004FFA0146EC28F9D3A8070AD589A10B20A6
:1057B000FDF748FA2C21204602F042FA01466C28F7
:1057C000F9D3CBA10B20FDF73DFAFEF7CFFB4BE061
:1057D000CCA10B20FDF736FAF02729E0E05D342854
:1057E0001FD035281FD1E0198078062802D005285F
:1057F00010D018E0CFA10B20FDF724FA032188F880
:10580000001004220021B64802F053F8002004B032
:10581000BDE8F09FD0A10B20FDF714FA88F80090A6
:1058200001E0E01985783946204602F0D5F90746AF
:10583000B742D3D3E8070AD05CA10B20FDF702FAE8
:105840006C21204602F0C8F90146EC28F9D3A807DC
:105850000AD560A10B20FDF7F5F92C21204602F0B6
:10586000BBF901466C28F9D30120D0E7FCD9002010
:105870002A2A2A2050726F63657373696E672066E7
:1058800072616D65202A2A2A0A000000526563654C
:105890006976652C2057726F6E6720536572766546
:1058A0007220706F72740A00526563656976652CA8
:1058B000204672616D6520746F6F2073686F72741B
:1058C0000A000000526563656976652C204D697396
:1058D000666F726D6564207265706C790A000000F5
:1058E000526563656976652C2057726F6E67205824
:1058F00049440A00300000206353826352656365A7
:105900006976652C2057726F6E67204D61676963F9
:1059100020436F6F6B69650A000000005265636584
:105920006976652C2057726F6E6720434841444466
:10593000520A000020496E697469616C20636865D1
:10594000636B204F4B0A000020436C69656E742026
:1059500073746174652053454C454354494E470A5E
:1059600000000000204E6F74206120444843505FC7
:105970004F46464552206D6573736167652C204123
:10598000626F7274696E670A0000000020526563DE
:10599000656976656420444843505F4F46464552EA
:1059A000206D6573736167650A0000002050726F97
:1059B00063657373696E67204F7665726C6F61649F
:1059C000202766696C6527206F7074696F6E730A93
:1059D000000000002050726F63657373696E67206A
:1059E0004F7665726C6F61642027736E616D6527F9
:1059F000206F7074696F6E730A0000004F666665F1
:105A000072656420495000005365727665722049C2
:105A100064000000204E6578742073746174652002
:105A200052455155455354494E470A002044484376
:105A3000505F4F464645522077697468206E6F204C
:105A40007365727665722049442C2061626F7274AE
:105A5000696E670A0000000020436C69656E74205F
:105A600073746174652052455155455354494E47EE
:105A70000A000000536572766572206F72207265AD
:105A800071756573746564204950206E6F7420745D
:105A900068652073616D652C2064756D70696E6733
:105AA0000A0000004E6F7420444843505F41434B4E
:105AB000206D6573736167652C2064756D70696E08
:105AC000670A000020526563656976656420444872
:105AD00043505F41434B206D6573736167650A00F6
